{
  "_format": "hh-sol-artifact-1",
  "contractName": "LimitedAccessNFT",
  "sourceName": "contracts/LimitedAccessNFT.sol",
  "abi": [
    {
      "inputs": [],
      "stateMutability": "nonpayable",
      "type": "constructor"
    },
    {
      "inputs": [
        {
          "internalType": "uint256",
          "name": "",
          "type": "uint256"
        }
      ],
      "name": "accessCounts",
      "outputs": [
        {
          "internalType": "uint256",
          "name": "",
          "type": "uint256"
        }
      ],
      "stateMutability": "view",
      "type": "function"
    },
    {
      "inputs": [
        {
          "internalType": "uint256",
          "name": "tokenId",
          "type": "uint256"
        }
      ],
      "name": "accessNFT",
      "outputs": [],
      "stateMutability": "nonpayable",
      "type": "function"
    },
    {
      "inputs": [
        {
          "internalType": "uint256",
          "name": "",
          "type": "uint256"
        }
      ],
      "name": "maxAccess",
      "outputs": [
        {
          "internalType": "uint256",
          "name": "",
          "type": "uint256"
        }
      ],
      "stateMutability": "view",
      "type": "function"
    },
    {
      "inputs": [
        {
          "internalType": "uint256",
          "name": "maxAccessTimes",
          "type": "uint256"
        }
      ],
      "name": "mint",
      "outputs": [],
      "stateMutability": "nonpayable",
      "type": "function"
    },
    {
      "inputs": [],
      "name": "nextTokenId",
      "outputs": [
        {
          "internalType": "uint256",
          "name": "",
          "type": "uint256"
        }
      ],
      "stateMutability": "view",
      "type": "function"
    },
    {
      "inputs": [],
      "name": "owner",
      "outputs": [
        {
          "internalType": "address",
          "name": "",
          "type": "address"
        }
      ],
      "stateMutability": "view",
      "type": "function"
    },
    {
      "inputs": [
        {
          "internalType": "uint256",
          "name": "tokenId",
          "type": "uint256"
        }
      ],
      "name": "remainingAccess",
      "outputs": [
        {
          "internalType": "uint256",
          "name": "",
          "type": "uint256"
        }
      ],
      "stateMutability": "view",
      "type": "function"
    },
    {
      "inputs": [
        {
          "internalType": "uint256",
          "name": "",
          "type": "uint256"
        }
      ],
      "name": "tokenOwners",
      "outputs": [
        {
          "internalType": "address",
          "name": "",
          "type": "address"
        }
      ],
      "stateMutability": "view",
      "type": "function"
    }
  ],
  "bytecode": "0x60806040526001600455348015601457600080fd5b50336000806101000a81548173ffffffffffffffffffffffffffffffffffffffff021916908373ffffffffffffffffffffffffffffffffffffffff160217905550610818806100646000396000f3fe608060405234801561001057600080fd5b50600436106100885760003560e01c80639c77901a1161005b5780639c77901a14610115578063a0712d6814610145578063e372a5e914610161578063f8a14f461461019157610088565b806375794a3c1461008d5780638d173951146100ab5780638da5cb5b146100c75780639bc5d416146100e5575b600080fd5b6100956101c1565b6040516100a2919061050d565b60405180910390f35b6100c560048036038101906100c09190610559565b6101c7565b005b6100cf6102fe565b6040516100dc91906105c7565b60405180910390f35b6100ff60048036038101906100fa9190610559565b610322565b60405161010c919061050d565b60405180910390f35b61012f600480360381019061012a9190610559565b61035d565b60405161013c919061050d565b60405180910390f35b61015f600480360381019061015a9190610559565b610375565b005b61017b60048036038101906101769190610559565b6104a9565b604051610188919061050d565b60405180910390f35b6101ab60048036038101906101a69190610559565b6104c1565b6040516101b891906105c7565b60405180910390f35b60045481565b803373ffffffffffffffffffffffffffffffffffffffff166003600083815260200190815260200160002060009054906101000a900473ffffffffffffffffffffffffffffffffffffffff1673ffffffffffffffffffffffffffffffffffffffff1614610269576040517f08c379a00000000000000000000000000000000000000000000000000000000081526004016102609061063f565b60405180910390fd5b60026000838152602001908152602001600020546001600084815260200190815260200160002054106102d1576040517f08c379a00000000000000000000000000000000000000000000000000000000081526004016102c8906106ab565b60405180910390fd5b6001600083815260200190815260200160002060008154809291906102f5906106fa565b91905055505050565b60008054906101000a900473ffffffffffffffffffffffffffffffffffffffff1681565b6000600160008381526020019081526020016000205460026000848152602001908152602001600020546103569190610742565b9050919050565b60026020528060005260406000206000915090505481565b60008054906101000a900473ffffffffffffffffffffffffffffffffffffffff1673ffffffffffffffffffffffffffffffffffffffff163373ffffffffffffffffffffffffffffffffffffffff1614610403576040517f08c379a00000000000000000000000000000000000000000000000000000000081526004016103fa906107c2565b60405180910390fd5b60006004549050816002600083815260200190815260200160002081905550336003600083815260200190815260200160002060006101000a81548173ffffffffffffffffffffffffffffffffffffffff021916908373ffffffffffffffffffffffffffffffffffffffff16021790555060006001600083815260200190815260200160002081905550600460008154809291906104a0906106fa565b91905055505050565b60016020528060005260406000206000915090505481565b60036020528060005260406000206000915054906101000a900473ffffffffffffffffffffffffffffffffffffffff1681565b6000819050919050565b610507816104f4565b82525050565b600060208201905061052260008301846104fe565b92915050565b600080fd5b610536816104f4565b811461054157600080fd5b50565b6000813590506105538161052d565b92915050565b60006020828403121561056f5761056e610528565b5b600061057d84828501610544565b91505092915050565b600073ffffffffffffffffffffffffffffffffffffffff82169050919050565b60006105b182610586565b9050919050565b6105c1816105a6565b82525050565b60006020820190506105dc60008301846105b8565b92915050565b600082825260208201905092915050565b7f4b686f6e6720706861692063687520736f20687575204e46542e000000000000600082015250565b6000610629601a836105e2565b9150610634826105f3565b602082019050919050565b600060208201905081810360008301526106588161061c565b9050919050565b7f446120686574206c756f742074727579206361702e0000000000000000000000600082015250565b60006106956015836105e2565b91506106a08261065f565b602082019050919050565b600060208201905081810360008301526106c481610688565b9050919050565b7f4e487b7100000000000000000000000000000000000000000000000000000000600052601160045260246000fd5b6000610705826104f4565b91507fffffffffffffffffffffffffffffffffffffffffffffffffffffffffffffffff8203610737576107366106cb565b5b600182019050919050565b600061074d826104f4565b9150610758836104f4565b92508282039050818111156107705761076f6106cb565b5b92915050565b7f4368692063687520686f7020646f6e67206d6f692064756f6320706865702e00600082015250565b60006107ac601f836105e2565b91506107b782610776565b602082019050919050565b600060208201905081810360008301526107db8161079f565b905091905056fea2646970667358221220762daa199ec3697dee048aa19008dccbe08b155d7c12c3e0756756c39dd830f964736f6c634300081c0033",
  "linkReferences": {},
  "deployedLinkReferences": {}
}